:100000000C9463000C9468090C9495090C948B0073
:100010000C948B000C948D000C948B000C948B0032
:100020000C948B000C948B000C948B000C948B0024
:100030000C948B000C948B000C948B000C948B0014
:100040000C945A0A0C948B000C94F8090C948B00B5
:100050000C948B000C948B000C948B000C948B00F4
:100060000C948B000C948B000000000024002700EF
:100070002A0000000000250028002B0000000000DE
:1000800023002600290004040404040404040202DA
:100090000202020203030303030301020408102007
:1000A0004080010204081020010204081020000012
:1000B0000007000201000003040600000000000029
:1000C0000000E101200A11241FBECFEFD4E0DEBF03
:1000D000CDBF11E0A0E0B1E0ECE1F7E102C0059096
:1000E0000D92AA30B107D9F712E0AAE0B1E001C041
:1000F0001D92AB38B107E1F710E0C6ECD0E004C0C8
:100100002297FE010E946A0BC23CD107C9F70E94E8
:100110007E080C948C0B0C9400001F920F920FB66B
:100120000F921124DF92EF92FF920F931F932F9360
:100130003F934F935F936F937F938F939F93AF936F
:10014000BF93CF93DF93EF93FF9389B18170809337
:100150000E0189B1827080930D0189B188708093FE
:100160000C0189B1807180930B0189B180728093F9
:100170000A018AE0E82E81E0F82E0DE111E0CFE0DF
:10018000D1E0DD24D394F70181917F018823A9F484
:100190008881813099F4F80180819181A281B381B5
:1001A0000196A11DB11D80839183A283B383188220
:1001B00088E061E00E94A30801C0D8820C5F1F4F55
:1001C0002196FFE0EF16F1E0FF06E9F6FF91EF91CF
:1001D000DF91CF91BF91AF919F918F917F916F915F
:1001E0005F914F913F912F911F910F91FF90EF9051
:1001F000DF900F900FBE0F901F90189580E060E089
:100200000E94850881E060E00E94850883E060E04C
:100210000E94850884E060E00E94850885E060E037
:100220000E94850880E061E00E94A30881E061E00F
:100230000E94A30883E061E00E94A30884E061E0DB
:100240000E94A30885E061E00E94A30888E061E0C5
:100250000E94850889E061E00E948508E8E6F0E0F8
:10026000808184608083EDE6F0E08081816080831E
:1002700080818260808380818860808380818061CA
:100280008083808180628083789485E062E04AE2A6
:1002900020E436EA0E94CB0680E490E00E945B08EE
:1002A00080E00E946C0710921D0110921E011092B6
:1002B0001F01109220011092210110922201109230
:1002C0002301109224011092250110922601109210
:1002D0002701109228011092290110922A011092F0
:1002E0002B0110922C0110922D0110922E011092D0
:1002F0002F0110923001089529E288E190E00FB6B5
:10030000F894A895809360000FBE2093600084E16C
:1003100091E068E873E10E940302882319F437C072
:100320000E946F070E9474068823D1F38DE191E04B
:1003300064E10E941B0810921D0110921E01109290
:100340001F0110922001109221011092220110929F
:10035000230110922401109225011092260110927F
:100360002701109228011092290110922A0110925F
:100370002B0110922C0110922D0110922E0110923F
:100380002F011092300189E061E00E94A30887E10B
:1003900091E06AE570E00E940302882321F088E082
:1003A00060E00E94A3088AE191E06AE570E00E94A3
:1003B0000302882321F089E060E00E94A308A89549
:1003C0000895109216011092190110921C010895BF
:1003D0000F931F93CF93DF938C01EB0181E0209764
:1003E00009F480E0F8018283882341F00E94A20A88
:1003F0002197C60FD71FF801D183C083DF91CF911A
:100400001F910F910895EF92FF920F931F93CF9337
:10041000DF93EC017B018A81882361F008811981D7
:100420000E94A20A061B170B8AEE0136180740F03D
:10043000019501C000E0CE01B7010E94E80101C0B2
:1004400000E0802FDF91CF911F910F91FF90EF90EF
:1004500008959C012627622F62956227062E6695D5
:1004600066956025062E669560256770022E232FFF
:10047000669507946795302D262706946795302555
:100480002627C90108958EBD0DB407FEFDCF8EB598
:100490000895EF92FF921F93CF93DF93182F2A981E
:1004A000892F0E944302982F80E0EC01812F0E9447
:1004B00043022A9A282F30E02C2B3D2BC901DF91D3
:1004C000CF911F91FF90EF9008951F9380E090E0EF
:1004D0000E9449028091E2018530E9F580E090EBCD
:1004E0000E944902682F8091E601882371F490915F
:1004F000E301992351F08091E601E82FF0E0ED5CF3
:10050000FE4F90838F5F8093E6018091E601E82F94
:10051000F0E0ED5CFE4F60838F5F8093E601809199
:100520003101909132010E9429029093320180930F
:100530003101809135012091E60190E0049630E090
:10054000821793072CF08091E601873408F457C096
:100550008DE092E852C08091E20187FF1AC0E091DD
:1005600035018091E201982F9F5F9093E201ED5F4A
:10057000E80FF0E0ED5CFE4F108180913101909129
:100580003201612F0E942902909332018093310140
:1005900030C08091E201982F9F5F9093E2018330F9
:1005A00019F184302CF4882399F0813009F516C0B4
:1005B000893019F08A30E1F402C01DE21AC01091AE
:1005C0003301909135018EEF891B8093E20111C0B8
:1005D0008091310190913201182F0BC0809131012F
:1005E00090913201192F05C08DE092E80E944902D6
:1005F0001AEA812F90E0805098440E9449021F918E
:1006000008952F923F924F925F926F927F928F92B6
:100610009F92AF92BF92CF92DF92EF92FF920F9391
:100620001F93DF93CF93CDB7DEB729970FB6F8941A
:10063000DEBF0FBECDBF882309F45EC1E091350156
:100640008091900190919101A0919201B0919301BC
:100650000196A11DB11D8093900190939101A093EB
:100660009201B0939301F0E0EA5CFE4F80839183A6
:10067000A283B38380913501809583709091350179
:10068000980F90933501E0913501F0E0EA5CFE4F60
:1006900090819F739083E0913501F0E0EA5CFE4F1A
:1006A00090818295880F880F807C892B8083809130
:1006B00035018F5F80933501809135018695869550
:1006C00082300CF480C2682E772467FC7094089402
:1006D000610871084301880C991C880C991C06E379
:1006E000202E01E0302E820C931CF4018081918138
:1006F000A281B381AA24BB24650119EB212E19E73D
:10070000312E17E3412E1EE9512EA20CB31CC41C3E
:10071000D51CA6019501F2E056954795379527958A
:10072000FA95D1F7722F737060E065C04E815F81DA
:10073000440F551F440F551F465C5E4FFA01E08081
:10074000F180028113814E815F81440F551F440F58
:10075000551F4A5C5E4F5F834E832727E22FF0E0F0
:10076000EE0FFF1FEE0FFF1FE058FE4F208131817B
:100770004281538182279327A427B527A801970197
:100780002A253B254C255D25820F931FA41FB51FED
:10079000A8019701F3E05695479537952795FA9567
:1007A000D1F72225332544255525E2E0EE0CFF1C28
:1007B000001F111FEA95D1F729803A804B805C8099
:1007C000E224F324042515252E0D3F1D401F511F43
:1007D00082279327A427B527EE81FF8120813181CD
:1007E00042815381820F931FA41FB51F8083918381
:1007F000A283B3836F5F262E33243F822E82262F5F
:1008000023701C012D01F4E0220C331C441C551CE8
:10081000FA95D1F77C018D01E5E016950795F794DF
:10082000E794EA95D1F7E982FA820B831C830E8163
:100830001F81061517050CF479CFE0903601F09072
:10084000370100913801109139012727E22FF0E09C
:10085000EE0FFF1FEE0FFF1FE058FE4F208131818A
:100860004281538182279327A427B527A6019501AA
:100870002E253F2540275127820F931FA41FB51F08
:10088000A801970163E056954795379527956A9596
:10089000D1F72225332544255525F2E0EE0CFF1C27
:1008A000001F111FFA95D1F729803A804B805C8098
:1008B000E224F324042515252E0D3F1D401F511F52
:1008C00082279327A427B527F40120813181428113
:1008D0005381820F931FA41FB51F80839183A2832E
:1008E000B383F6E5AF16FAEDBF06FCE4CF06F5EBF1
:1008F000DF0609F002CF67C180913101909132018A
:10090000009709F060C18091350186958695823007
:100910000CF410C12091360130913701409138011B
:1009200050913901682F772767FD7095660F771F03
:10093000660F771F6E5C7E4F96E5A92E9AEDB92E55
:100940009CE4C92E95EBD92E81508D837F836E83D5
:10095000D601C50102E0B695A795979587950A95AA
:10096000D1F7782F73706D815FC0862F90E0FC0106
:10097000EE0FFF1FEE0FFF1FEE5CFE4FE080F180D9
:10098000028113819C01220F331F220F331F2A5C27
:100990003E4F39872887E62FE370E727F0E0EE0F18
:1009A000FF1FEE0FFF1FE058FE4F80819181A28153
:1009B000B3818E259F25A027B12729813A814B81BC
:1009C0005C81820F931FA41FB51FA8019701F4E05B
:1009D000220F331F441F551FFA95D1F726253725BF
:1009E00048255925E5E016950795F794E794EA958B
:1009F000D1F7E224F324042515252E0D3F1D401FB9
:100A0000511F82279327A427B527E885F9852081E0
:100A1000318142815381281B390B4A0B5B0B2083A8
:100A2000318342835383615019012A012A243B24D4
:100A30004C245D2429823A824B825C8239014A012E
:100A4000B3E09694879477946794BA95D1F7190197
:100A50002A01A2E0220C331C441C551CAA95D1F794
:100A6000662309F082CFAE81BF81ED90FD900D919C
:100A70001C91D801C701F4E0880F991FAA1FBB1F62
:100A8000FA95D1F786259725A825B925A8019701BC
:100A9000E5E05695479537952795EA95D1F72225B4
:100AA000332544255525820F931FA41FB51FE72F1B
:100AB000F0E0EE0FFF1FEE0FFF1FE058FE4F20810A
:100AC0003181428153812E253F254027512729809E
:100AD0003A804B805C80220D331D441D551D8227BA
:100AE0009327A427B52720913601309137014091F3
:100AF000380150913901281B390B4A0B5B0B2093AD
:100B0000360130933701409338015093390167E43F
:100B1000E62E66E8F62E68EC062F61E6162FAE0C80
:100B2000BF1CC01ED11EA114B104C104D10409F020
:100B30000FCF03C0882309F446C08091350181504E
:100B400080933501E0913501F0E0EA5CFE4F608171
:100B50006295669566956370E0913501F0E0EA5C18
:100B6000FE4F808190E0A0E0B0E08F739070A070A5
:100B7000B07080937A0190937B01A0937C01B09335
:100B80007D0117C0BA2FA92F982F882720913501F2
:100B9000215020933501E0913501F0E0EA5CFE4FF1
:100BA000208130E040E050E0822B932BA42BB52B2A
:100BB0006150662339F780937A0190937B01A0936B
:100BC0007C01B0937D0129960FB6F894DEBF0FBE6D
:100BD000CDBFCF91DF911F910F91FF90EF90DF90EC
:100BE000CF90BF90AF909F908F907F906F905F90CD
:100BF0004F903F902F9008958091E201853009F049
:100C000040C0809135012091E60190E0049630E0EB
:100C10008217930724F08091E601873490F184E0F5
:100C20008093E20180913501833430F081E090E0DF
:100C300090933201809331018091340186FF12C07C
:100C40002091E00130E0C9018F7190708F319105E2
:100C500049F08091340190E0822793278F71907042
:100C6000009779F48091310190913201009771F5EC
:100C7000E0917E01F0917F01309741F180E009958C
:100C800031C08091E2018430F9F4109235018091F5
:100C900035018093E6018FEF9FEF909332018093AF
:100CA00031016091E301662331F00E9429029093A3
:100CB00032018093310185E08093E2018DED92E86D
:100CC0000E94490280E0089580E008958FEF9FEF31
:100CD000AFEFBFEF80937A0190937B01A0937C01EB
:100CE000B0937D0181E008958091E2018530A9F4FF
:100CF0008091E601882389F40E94430280FD0FC0A1
:100D00008DE092E80E94490284E08093E2018091A4
:100D1000E3018093330181E0089580E0089580E04D
:100D2000089586FD05C0807E9091E0019F71890F36
:100D300080933401E0917E01F0917F01309711F0B2
:100D400081E009958FEF9FEF9093320180933101FD
:100D50008091310190913201609133010E9429020A
:100D6000909332018093310186E08093E2018DE31C
:100D700092E80E94490208951F93182F409335016D
:100D800026E331E0C90150E00E947B0B812F0E94D5
:100D900091061F9108951F93162F8093E0014093B1
:100DA000E3013093E5012093E4012A9A229A8AE034
:100DB00061E00E94A3088AE061E00E9485088BE060
:100DC00061E00E9485088CE060E00E9485088DE06B
:100DD00061E00E94850881E58CBD8DB581608DBD87
:100DE00085E060E00E94850885E061E00E94A3083C
:100DF00080E090E00E94490285E092E80E9449026A
:100E000080E098EB02C080E090E00E94490285E01B
:100E10000E94EF080097B9F3812F90E024E0880F3B
:100E2000991F2A95E1F7876C90680E94490280918A
:100E3000E4019091E5010E94490286E096EC0E944F
:100E4000490282EA94E90E9449028CEA92EC0E94EB
:100E500049021091E301112341F083E89AEC0E94CA
:100E60004902812F90E09E6C06C08BE89AEC0E94AC
:100E700049028DE29EEC0E94490283E894EC0E94B4
:100E8000490280E598E90E94490287E79CEC0E94AC
:100E9000490280E090EE0E94490280E098EC0E94B6
:100EA000490289E490EC0E94490284E08093E201C7
:100EB0008091E00190E08F719070009741F080E0A8
:100EC00065E672E040E050E00E94380903C080E02F
:100ED0000E9458091F9108958093E1010895DF92BF
:100EE000EF92FF920F931F930E94FC058823E9F075
:100EF00080913101909132010097B9F490913401C1
:100F00008091E0018F71806C981779F41092DF0165
:100F100010929401109295011092960110929701EF
:100F200080913501882309F07DC08091DF018823FD
:100F300009F472C0DD24D394883009F0DD240E94C6
:100F4000A20A7B018C01ED2DF0E0EE0FFF1FEE0FEA
:100F5000FF1FEC56FE4F80819181A281B381E8167C
:100F6000F9060A071B070CF457C00E947406882371
:100F700009F452C0D801C70188519C4FAF4FBF4FF1
:100F80008093940190939501A0939601B09397015B
:100F9000DD20B1F16091E101662351F070E080E065
:100FA00090E028EE33E040E050E00E94220B1CC0AD
:100FB0008091E00190E046E0959587954A95E1F7AC
:100FC0008230910569F460919C018DE06802B00166
:100FD00011246E577F4F882777FD8095982F04C086
:100FE00064E670E080E090E0E60EF71E081F191F2F
:100FF000E0929801F092990100939A0110939B015D
:1010000080E26DE971E040919C010E94BC068091F4
:10101000DF0181508093DF018091DF01882321F07F
:101020008FEF03C081E001C080E01F910F91FF901E
:10103000EF90DF900895EF92FF921F93CF93DF938D
:10104000EC01162F009759F1662349F18091940124
:1010500090919501A0919601B09197010097A105FB
:10106000B10599F4262F30E080919C01992787FDE6
:1010700090952817390749F48DE991E0BE01412F79
:1010800050E00E946E0B009779F02DE931E0C90124
:10109000BE01412F50E00E947B0B10939C0188E021
:1010A0008093DF0181E001C080E0DF91CF911F914B
:1010B000FF90EF9008950F931F93CF93DF930097C6
:1010C000A1F08C01C0E8D1E0C8010E94840B899393
:1010D0000F5F1F4F81E0C039D807B1F781E093E07F
:1010E00090937F0180937E0104C010927F01109243
:1010F0007E01DF91CF911F910F9108950E94B00A58
:101100000E94FE000E947C01FDCF90E0FC01E656AB
:10111000FF4F2491FC01EA57FF4FE491EE2391F039
:10112000F0E0EE0FFF1FE859FF4F85919491DC012D
:10113000662329F48C91209582238C9308958C91B9
:10114000822B8C93089590E0FC01E255FF4F24918F
:10115000FC01E656FF4F44918A579F4FFC01849152
:10116000882309F43BC0222331F1233021F49091EC
:1011700080009F7705C0243031F4909180009F7DDE
:101180009093800018C0213019F494B59F7704C063
:10119000223021F494B59F7D94BD0DC0263021F4FA
:1011A0009091B0009F7705C0273029F49091B0004E
:1011B0009F7D9093B000E82FF0E0EE0FFF1FEE58F8
:1011C000FF4F25913491D901662329F48C914095E4
:1011D00084238C9308958C91842B8C93089590E0B4
:1011E000FC01E255FF4F2491FC01E656FF4F44916C
:1011F0008A579F4FFC0184918823B1F1222331F15A
:10120000233021F4909180009F7705C0243031F481
:10121000909180009F7D9093800018C0213019F438
:1012200094B59F7704C0223021F494B59F7D94BD7E
:101230000DC0263021F49091B0009F7705C0273073
:1012400029F49091B0009F7D9093B000E82FF0E0DA
:10125000EE0FFF1FE458FF4F25913491D9018C9177
:10126000842321E030E011F420E030E0C90108954A
:101270008230E8F4E82FF0E0EE0FFF1FE951FE4F57
:1012800071836083813041F0809169008C7F842B71
:1012900080936900E89A089580916900440F551F72
:1012A000440F551F837F842B80936900E99A08952A
:1012B000823068F4813011F0E89801C0E998E82F95
:1012C000F0E0EE0FFF1FE951FE4F118210820895EA
:1012D0001F920F920FB60F9211242F933F934F93AB
:1012E0005F936F937F938F939F93AF93BF93EF938E
:1012F000FF938091E7019091E801009729F0E09138
:10130000E701F091E8010995FF91EF91BF91AF914D
:101310009F918F917F916F915F914F913F912F910D
:101320000F900FBE0F901F9018951F920F920FB63F
:101330000F9211242F933F934F935F936F937F935B
:101340008F939F93AF93BF93EF93FF938091E901A6
:101350009091EA01009729F0E091E901F091EA010A
:101360000995FF91EF91BF91AF919F918F917F91DF
:101370006F915F914F913F912F910F900FBE0F9002
:101380001F901895FC01A085B18521898C9190E072
:10139000022E02C0959587950A94E2F780FFF6CF5A
:1013A0000484F585E02D608308951F93CF93DF9328
:1013B000182F9B01EB01C058DF4FE881F981CF0165
:1013C000019660E870E00E94550BAC01D901AE5760
:1013D000BF4F8D919C9111974817590729F0E20F43
:1013E000F31F108359834883DF91CF911F91089594
:1013F0001F920F920FB60F9211242F933F934F938A
:101400005F936F937F938F939F93AF93BF93EF936C
:10141000FF938091C6006BEE71E00E94D509FF91A9
:10142000EF91BF91AF919F918F917F916F915F915C
:101430004F913F912F910F900FBE0F901F901895D5
:1014400084E091E09093700280936F028BEE91E0C4
:10145000909372028093710285EC90E090937402F5
:101460008093730284EC90E09093760280937502EF
:1014700080EC90E0909378028093770281EC90E08A
:1014800090937A028093790286EC90E090937C02AC
:1014900080937B0284E080937D0283E080937E02D0
:1014A00087E080937F0285E08093800281E08093D3
:1014B000810208951F920F920FB60F9211242F935D
:1014C0003F938F939F93AF93BF93809186029091A8
:1014D0008702A0918802B091890230918A02019618
:1014E000A11DB11D232F2D5F2D3720F02D57019603
:1014F000A11DB11D20938A028093860290938702DA
:10150000A0938802B0938902809182029091830215
:10151000A0918402B09185020196A11DB11D809316
:10152000820290938302A0938402B0938502BF91BC
:10153000AF919F918F913F912F910F900FBE0F9080
:101540001F9018958FB7F8942091860230918702EA
:1015500040918802509189028FBFB901CA01089554
:10156000789484B5826084BD84B5816084BD85B57E
:10157000826085BD85B5816085BDEEE6F0E0808145
:1015800081608083E1E8F0E08081826080838081F7
:1015900081608083E0E8F0E0808181608083E1EB1E
:1015A000F0E0808184608083E0EBF0E08081816006
:1015B0008083EAE7F0E080818460808380818260BC
:1015C00080838081816080838081806880831092A5
:1015D000C10008950F931F93CF93DF93EC01062F63
:1015E000172F07C0E881F9810190F081E02DCE012D
:1015F0000995F80161918F016623A1F7DF91CF91E1
:101600001F910F910895EF92FF920F931F93CF9325
:10161000DF937C01EB018A010BC06991D701ED9149
:10162000FC910190F081E02DC70109950150104017
:101630000115110591F7DF91CF911F910F91FF9047
:10164000EF900895629FD001739FF001829FE00D9B
:10165000F11D649FE00DF11D929FF00D839FF00D31
:10166000749FF00D659FF00D9927729FB00DE11DDD
:10167000F91F639FB00DE11DF91FBD01CF011124BA
:101680000895AA1BBB1B51E107C0AA1FBB1FA617C9
:10169000B70710F0A61BB70B881F991F5A95A9F71B
:1016A00080959095BC01CD01089597FB092E0726E2
:1016B0000AD077FD04D0E5DF06D000201AF470953B
:1016C00061957F4F0895F6F7909581959F4F089506
:1016D000EE0FFF1F0590F491E02D0994FB01DC0152
:1016E00004C08D910190801921F441505040C8F7F9
:1016F000881B990B0895FB01DC0102C001900D923B
:1017000041505040D8F70895F999FECF92BD81BD60
:0C171000F89A992780B50895F894FFCF4F
:0A171C0000000000C209EA0A030BF6
:00000001FF
