:100000000C9463000C9481090C94AE090C948B0041
:100010000C948B000C948D000C948B000C948B0032
:100020000C948B000C948B000C948B000C948B0024
:100030000C948B000C948B000C948B000C948B0014
:100040000C94DB090C948B000C94A10A0C948B008B
:100050000C948B000C948B000C948B000C948B00F4
:100060000C948B000C948B000000000024002700EF
:100070002A0000000000250028002B0000000000DE
:1000800023002600290004040404040404040202DA
:100090000202020203030303030301020408102007
:1000A0004080010204081020010204081020000012
:1000B0000007000201000003040600000000000029
:1000C0000000CD01C90A11241FBECFEFD4E0DEBF6E
:1000D000CDBF11E0A0E0B1E0ECEEF6E102C005908A
:1000E0000D92AA30B107D9F712E0AAE0B1E001C041
:1000F0001D92AE39B107E1F710E0C6ECD0E004C0C4
:100100002297FE010E94520BC23CD107C9F70E9400
:10011000030B0C94740B0C9400001F920F920FB6FB
:100120000F9211249F92AF92BF92CF92DF92EF92E3
:10013000FF920F931F932F933F934F935F936F9370
:100140007F938F939F93AF93BF93CF93DF93EF935F
:10015000FF9389B1817080930E0189B18270809381
:100160000D0189B1887080930C0189B180718093F1
:100170000B0189B1807280930A012AE0C22E21E02E
:10018000D22ECBE2D1E094E1E92E91E0F92E85E088
:10019000A82EB12CAC0EBD1E0FE011E09924939453
:1001A000F60181916F01882309F5F8018081813082
:1001B000F9F488818F5F88830E94230AF7012081E8
:1001C000318142815381621B730B840B950BF501C6
:1001D00060837183828393830E94230AF701608383
:1001E000718382839383F801108202C0F8019082A8
:1001F000219684E090E0E80EF91EA80EB91E0F5F6C
:100200001F4F9FE0C91691E0D90651F6FF91EF917B
:10021000DF91CF91BF91AF919F918F917F916F911E
:100220005F914F913F912F911F910F91FF90EF9010
:10023000DF90CF90BF90AF909F900F900FBE0F9028
:100240001F90189580E060E00E94660881E060E001
:100250000E94660883E060E00E94660884E060E037
:100260000E94660885E060E00E94660880E061E028
:100270000E94840881E061E00E94840883E061E0DC
:100280000E94840884E061E00E94840885E061E0C7
:100290000E94840888E061E00E94660889E061E0CD
:1002A0000E946608E8E6F0E0808184608083EDE6E5
:1002B000F0E08081816080838081826080838081A2
:1002C0008860808380818061808380818062808378
:1002D00085E062E04AE220E436EA0E94B30680E468
:1002E00090E00E94430880E00E945407089588E24D
:1002F00091E068E873E10E94EB01882309F44CC0A7
:10030000F8940E9457078BE291E069E10E9403088C
:1003100010922B0110923001109231011092320193
:100320001092330110922C01109234011092350179
:10033000109236011092370110922D01109238015F
:100340001092390110923A0110923B0110922E0145
:1003500010923C0110923D0110923E0110923F011B
:1003600010922F011092400110924101109242010F
:1003700010924301789489E061E00E9484088FEF35
:1003800090E7A2E081509040A040E1F700C000005B
:1003900089E060E00E948408089510922A0108957F
:1003A0000F931F93CF93DF938C01EB0181E0209794
:1003B00009F480E0F8018283882341F00E94230A37
:1003C0002197C60FD71FF801D183C083DF91CF914A
:1003D0001F910F910895EF92FF920F931F93CF9368
:1003E000DF93EC017B018A81882361F00881198108
:1003F0000E94230A061B170B8AEE0136180740F0ED
:10040000019501C000E0CE01B7010E94D00101C0FA
:1004100000E0802FDF91CF911F910F91FF90EF901F
:1004200008959C012627622F62956227062E669505
:1004300066956025062E669560256770022E232F2F
:10044000669507946795302D262706946795302585
:100450002627C90108958EBD0DB407FEFDCF8EB5C8
:100460000895EF92FF921F93CF93DF93182F2A984E
:10047000892F0E942B02982F80E0EC01812F0E948F
:100480002B022A9A282F30E02C2B3D2BC901DF911B
:10049000CF911F91FF90EF9008951F9380E090E01F
:1004A0000E9431028091F5018530E9F580E090EB02
:1004B0000E943102682F8091F901882371F4909194
:1004C000F601992351F08091F901E82FF0E0EA5B01
:1004D000FE4F90838F5F8093F9018091F901E82F9F
:1004E000F0E0EA5BFE4F60838F5F8093F9018091BB
:1004F0004401909145010E9411029093450180931F
:100500004401809148012091F90190E0049630E087
:10051000821793072CF08091F901873408F457C0B3
:100520008DE092E852C08091F50187FF1AC0E091FA
:1005300048018091F501982F9F5F9093F501ED5F41
:10054000E80FF0E0EA5BFE4F10818091440190914A
:100550004501612F0E94110290934501809344014F
:1005600030C08091F501982F9F5F9093F501833003
:1005700019F184302CF4882399F0813009F516C0E4
:10058000893019F08A30E1F402C01DE21AC01091DE
:100590004601909148018EEF891B8093F50111C0AF
:1005A0008091440190914501182F0BC08091440126
:1005B00090914501192F05C08DE092E80E9431020B
:1005C0001AEA812F90E0805098440E9431021F91D6
:1005D00008952F923F924F925F926F927F928F92E7
:1005E0009F92AF92BF92CF92DF92EF92FF920F93C2
:1005F0001F93DF93CF93CDB7DEB729970FB6F8944B
:10060000DEBF0FBECDBF882309F45EC1E091480173
:100610008091A3019091A401A091A501B091A601A0
:100620000196A11DB11D8093A3019093A401A093F5
:10063000A501B093A601F0E0E75BFE4F80839183B4
:10064000A283B38380914801809583709091480183
:10065000980F90934801E0914801F0E0E75BFE4F6E
:1006600090819F739083E0914801F0E0E75BFE4F3B
:1006700090818295880F880F807C892B8083809160
:1006800048018F5F80934801809148018695869547
:1006900082300CF480C2682E772467FC7094089432
:1006A000610871084301880C991C880C991C09E4A5
:1006B000202E01E0302E820C931CF4018081918168
:1006C000A281B381AA24BB24650119EB212E19E76D
:1006D000312E17E3412E1EE9512EA20CB31CC41C6F
:1006E000D51CA6019501F2E05695479537952795BB
:1006F000FA95D1F7722F737060E065C04E815F810B
:10070000440F551F440F551F435B5E4FFA01E080B5
:10071000F180028113814E815F81440F551F440F88
:10072000551F475B5E4F5F834E832727E22FF0E024
:10073000EE0FFF1FEE0FFF1FED56FE4F20813181A0
:100740004281538182279327A427B527A8019701C7
:100750002A253B254C255D25820F931FA41FB51F1D
:10076000A8019701F3E05695479537952795FA9597
:10077000D1F72225332544255525E2E0EE0CFF1C58
:10078000001F111FEA95D1F729803A804B805C80C9
:10079000E224F324042515252E0D3F1D401F511F73
:1007A00082279327A427B527EE81FF8120813181FD
:1007B00042815381820F931FA41FB51F80839183B1
:1007C000A283B3836F5F262E33243F822E82262F8F
:1007D00023701C012D01F4E0220C331C441C551C19
:1007E000FA95D1F77C018D01E5E016950795F79410
:1007F000E794EA95D1F7E982FA820B831C830E8194
:100800001F81061517050CF479CFE0904901F0908F
:100810004A0100914B0110914C012727E22FF0E093
:10082000EE0FFF1FEE0FFF1FED56FE4F20813181AF
:100830004281538182279327A427B527A6019501DA
:100840002E253F2540275127820F931FA41FB51F38
:10085000A801970163E056954795379527956A95C6
:10086000D1F72225332544255525F2E0EE0CFF1C57
:10087000001F111FFA95D1F729803A804B805C80C8
:10088000E224F324042515252E0D3F1D401F511F82
:1008900082279327A427B527F40120813181428143
:1008A0005381820F931FA41FB51F80839183A2835E
:1008B000B383F6E5AF16FAEDBF06FCE4CF06F5EB21
:1008C000DF0609F002CF67C1809144019091450194
:1008D000009709F060C18091480186958695823025
:1008E0000CF410C12091490130914A0140914B0113
:1008F00050914C01682F772767FD7095660F771F21
:10090000660F771F6B5B7E4F96E5A92E9AEDB92E89
:100910009CE4C92E95EBD92E81508D837F836E8305
:10092000D601C50102E0B695A795979587950A95DA
:10093000D1F7782F73706D815FC0862F90E0FC0136
:10094000EE0FFF1FEE0FFF1FEB5BFE4FE080F1800D
:10095000028113819C01220F331F220F331F275B5B
:100960003E4F39872887E62FE370E727F0E0EE0F48
:10097000FF1FEE0FFF1FED56FE4F80819181A28178
:10098000B3818E259F25A027B12729813A814B81EC
:100990005C81820F931FA41FB51FA8019701F4E08B
:1009A000220F331F441F551FFA95D1F726253725EF
:1009B00048255925E5E016950795F794E794EA95BB
:1009C000D1F7E224F324042515252E0D3F1D401FE9
:1009D000511F82279327A427B527E885F985208111
:1009E000318142815381281B390B4A0B5B0B2083D9
:1009F000318342835383615019012A012A243B2405
:100A00004C245D2429823A824B825C8239014A015E
:100A1000B3E09694879477946794BA95D1F71901C7
:100A20002A01A2E0220C331C441C551CAA95D1F7C4
:100A3000662309F082CFAE81BF81ED90FD900D91CC
:100A40001C91D801C701F4E0880F991FAA1FBB1F92
:100A5000FA95D1F786259725A825B925A8019701EC
:100A6000E5E05695479537952795EA95D1F72225E4
:100A7000332544255525820F931FA41FB51FE72F4B
:100A8000F0E0EE0FFF1FEE0FFF1FED56FE4F20812F
:100A90003181428153812E253F25402751272980CE
:100AA0003A804B805C80220D331D441D551D8227EA
:100AB0009327A427B5272091490130914A014091FD
:100AC0004B0150914C01281B390B4A0B5B0B2093B7
:100AD000490130934A0140934B0150934C0167E424
:100AE000E62E66E8F62E68EC062F61E6162FAE0CB1
:100AF000BF1CC01ED11EA114B104C104D10409F051
:100B00000FCF03C0882309F446C08091480181506B
:100B100080934801E0914801F0E0E75BFE4F60817F
:100B20006295669566956370E0914801F0E0E75B39
:100B3000FE4F808190E0A0E0B0E08F739070A070D5
:100B4000B07080938D0190938E01A0938F01B0932C
:100B5000900117C0BA2FA92F982F882720914801FC
:100B6000215020934801E0914801F0E0E75BFE4FFF
:100B7000208130E040E050E0822B932BA42BB52B5A
:100B80006150662339F780938D0190938E01A09375
:100B90008F01B093900129960FB6F894DEBF0FBE77
:100BA000CDBFCF91DF911F910F91FF90EF90DF901C
:100BB000CF90BF90AF909F908F907F906F905F90FD
:100BC0004F903F902F9008958091F501853009F066
:100BD00040C0809148012091F90190E0049630E0F6
:100BE0008217930724F08091F901873490F184E013
:100BF0008093F50180914801833430F081E090E0EA
:100C000090934501809344018091470186FF12C073
:100C10002091F30130E0C9018F7190708F319105FF
:100C200049F08091470190E0822793278F7190705F
:100C3000009779F48091440190914501009771F5F6
:100C4000E0919101F0919201309741F180E0099596
:100C500031C08091F5018430F9F4109248018091FF
:100C600048018093F9018FEF9FEF909345018093A6
:100C700044016091F601662331F00E9411029093C5
:100C800045018093440185E08093F5018DED92E864
:100C90000E94310280E0089580E008958FEF9FEF79
:100CA000AFEFBFEF80938D0190938E01A0938F01E2
:100CB000B093900181E008958091F5018530A9F409
:100CC0008091F901882389F40E942B0280FD0FC0D6
:100CD0008DE092E80E94310284E08093F5018091DA
:100CE000F6018093460181E0089580E0089580E058
:100CF000089586FD05C0807E9091F3019F71890F54
:100D000080934701E0919101F0919201309711F0A9
:100D100081E009958FEF9FEF909345018093440107
:100D20008091440190914501609146010E94110219
:100D3000909345018093440186E08093F5018DE313
:100D400092E80E94310208951F93182F40934801A2
:100D500029E431E0C90150E00E94630B812F0E9419
:100D600079061F9108951F93162F8093F3014093E6
:100D7000F6013093F8012093F7012A9A229A8AE02B
:100D800061E00E9484088AE061E00E9466088BE0CE
:100D900061E00E9466088CE060E00E9466088DE0D9
:100DA00061E00E94660881E58CBD8DB581608DBDD6
:100DB00085E060E00E94660885E061E00E948408AA
:100DC00080E090E00E94310285E092E80E943102CA
:100DD00080E098EB02C080E090E00E94310285E064
:100DE0000E94D0080097B9F3812F90E024E0880F8B
:100DF000991F2A95E1F7876C90680E9431028091D3
:100E0000F7019091F8010E94310286E096EC0E9471
:100E1000310282EA94E90E9431028CEA92EC0E944B
:100E200031021091F601112341F083E89AEC0E94FF
:100E30003102812F90E09E6C06C08BE89AEC0E94F4
:100E400031028DE29EEC0E94310283E894EC0E9414
:100E5000310280E598E90E94310287E79CEC0E940C
:100E6000310280E090EE0E94310280E098EC0E9416
:100E7000310289E490EC0E94310284E08093F50114
:100E80008091F30190E08F719070009741F080E0C5
:100E90006DE472E040E050E00E94510903C080E040
:100EA0000E9471091F9108958093F4010895DF92C3
:100EB000EF92FF920F931F930E94E4058823E9F0BD
:100EC00080914401909145010097B9F490914701B8
:100ED0008091F3018F71806C981779F41092F20170
:100EE0001092A7011092A8011092A9011092AA01D4
:100EF00080914801882309F07DC08091F201882308
:100F000009F472C0DD24D394883009F0DD240E94F6
:100F1000230A7B018C01ED2DF0E0EE0FFF1FEE0F99
:100F2000FF1FE955FE4F80819181A281B381E816B0
:100F3000F9060A071B070CF457C00E945C068823B9
:100F400009F452C0D801C70188519C4FAF4FBF4F21
:100F50008093A7019093A801A093A901B093AA013F
:100F6000DD20B1F16091F401662351F070E080E082
:100F700090E028EE33E040E050E00E940A0B1CC0F5
:100F80008091F30190E046E0959587954A95E1F7C9
:100F90008230910569F46091AF018DE06802B00183
:100FA00011246E577F4F882777FD8095982F04C0B6
:100FB00064E670E080E090E0E60EF71E081F191F5F
:100FC000E092AB01F092AC010093AD011093AE0141
:100FD00080E260EB71E04091AF010E94A406809135
:100FE000F20181508093F2018091F201882321F077
:100FF0008FEF03C081E001C080E01F910F91FF904F
:10100000EF90DF900895EF92FF921F93CF93DF93BD
:10101000EC01162F009759F1662349F18091A70141
:101020009091A801A091A901B091AA010097A105F2
:10103000B10599F4262F30E08091AF01992787FD03
:1010400090952817390749F480EB91E0BE01412FB4
:1010500050E00E94560B009779F020EB31E0C90177
:10106000BE01412F50E00E94630B1093AF0188E056
:101070008093F20181E001C080E0DF91CF911F9168
:10108000FF90EF9008950F931F93CF93DF930097F6
:10109000A1F08C01C3E9D1E0C8010E946C0B8993D7
:1010A0000F5F1F4F81E0C33AD807B1F789EE92E096
:1010B000909392018093910104C01092920110923A
:1010C0009101DF91CF911F910F91089590E0FC0164
:1010D000E656FF4F2491FC01EA57FF4FE491EE23BF
:1010E00091F0F0E0EE0FFF1FE859FF4F85919491CA
:1010F000DC01662329F48C91209582238C9308953A
:101100008C91822B8C93089590E0FC01E255FF4F67
:101110002491FC01E656FF4F44918A579F4FFC01F2
:101120008491882309F43BC0222331F1233021F438
:10113000909180009F7705C0243031F49091800019
:101140009F7D9093800018C0213019F494B59F774B
:1011500004C0223021F494B59F7D94BD0DC026308B
:1011600021F49091B0009F7705C0273029F4909129
:10117000B0009F7D9093B000E82FF0E0EE0FFF1FCE
:10118000EE58FF4F25913491D901662329F48C91B3
:10119000409584238C9308958C91842B8C9308958F
:1011A00090E0FC01E255FF4F2491FC01E656FF4F11
:1011B00044918A579F4FFC0184918823B1F12223E7
:1011C00031F1233021F4909180009F7705C02430C5
:1011D00031F4909180009F7D9093800018C0213061
:1011E00019F494B59F7704C0223021F494B59F7D03
:1011F00094BD0DC0263021F49091B0009F7705C0BA
:10120000273029F49091B0009F7D9093B000E82F93
:10121000F0E0EE0FFF1FE458FF4F25913491D90104
:101220008C91842321E030E011F420E030E0C9010A
:1012300008950F931F93CF93DF93EC01062F172F81
:1012400007C0E881F9810190F081E02DCE01099578
:10125000F80161918F016623A1F7DF91CF911F9172
:101260000F910895EF92FF920F931F93CF93DF9307
:101270007C01EB018A010BC06991D701ED91FC91D2
:101280000190F081E02DC701099501501040011532
:10129000110591F7DF91CF911F910F91FF90EF9082
:1012A00008958230E8F4E82FF0E0EE0FFF1FE650DB
:1012B000FE4F71836083813041F0809169008C7FA3
:1012C000842B80936900E89A089580916900440F07
:1012D000551F440F551F837F842B80936900E99A23
:1012E0000895823068F4813011F0E89801C0E998DF
:1012F000E82FF0E0EE0FFF1FE650FE4F1182108244
:1013000008951F920F920FB60F9211242F933F93BF
:101310004F935F936F937F938F939F93AF93BF93FD
:10132000EF93FF938091FA019091FB01009729F0D0
:10133000E091FA01F091FB010995FF91EF91BF91C6
:10134000AF919F918F917F916F915F914F913F915D
:101350002F910F900FBE0F901F9018951F920F9214
:101360000FB60F9211242F933F934F935F936F9378
:101370007F938F939F93AF93BF93EF93FF9380914E
:10138000FC019091FD01009729F0E091FC01F091A2
:10139000FD010995FF91EF91BF91AF919F918F91C1
:1013A0007F916F915F914F913F912F910F900FBE61
:1013B0000F901F9018951F920F920FB60F92112445
:1013C0002F933F938F939F93AF93BF93809102028C
:1013D00090910302A0910402B0910502309106029F
:1013E0000196A11DB11D232F2D5F2D3720F02D5704
:1013F0000196A11DB11D20930602809302029093D5
:101400000302A0930402B09305028091FE01909123
:10141000FF01A0910002B09101020196A11DB11D32
:101420008093FE019093FF01A0930002B09301020C
:10143000BF91AF919F918F913F912F910F900FBED0
:101440000F901F9018958FB7F89420910202309159
:10145000030240910402509105028FBFB901CA01F5
:101460000895789484B5826084BD84B5816084BD1C
:1014700085B5826085BD85B5816085BDEEE6F0E00D
:10148000808181608083E1E8F0E0808182608083F8
:10149000808181608083E0E8F0E0808181608083EA
:1014A000E1EBF0E0808184608083E0EBF0E080811C
:1014B00081608083EAE7F0E08081846080838081BE
:1014C0008260808380818160808380818068808366
:1014D0001092C1000895FC01A085B18521898C91ED
:1014E00090E0022E02C0959587950A94E2F780FF5E
:1014F000F6CF0484F585E02D608308951F93CF9384
:10150000DF93182F9B01EB01C058DF4FE881F98171
:10151000CF01019660E870E00E943D0BAC01D9015B
:10152000AE57BF4F8D919C9111974817590729F0DD
:10153000E20FF31F108359834883DF91CF911F91EE
:1015400008951F920F920FB60F9211242F933F937D
:101550004F935F936F937F938F939F93AF93BF93BB
:10156000EF93FF938091C60067E072E00E947E0ACD
:10157000FF91EF91BF91AF919F918F917F916F916B
:101580005F914F913F912F910F900FBE0F901F9041
:10159000189584E091E090938C0280938B0287E011
:1015A00092E090938E0280938D0285EC90E0909370
:1015B000900280938F0284EC90E09093920280934B
:1015C000910280EC90E0909394028093930281ECDE
:1015D00090E0909396028093950286EC90E0909331
:1015E00098028093970284E08093990283E080932D
:1015F0009A0287E080939B0285E080939C0281E0C1
:1016000080939D0208950E94310A0E9422010E9447
:101610007701FDCF629FD001739FF001829FE00DA3
:10162000F11D649FE00DF11D929FF00D839FF00D61
:10163000749FF00D659FF00D9927729FB00DE11D0D
:10164000F91F639FB00DE11DF91FBD01CF011124EA
:101650000895AA1BBB1B51E107C0AA1FBB1FA617F9
:10166000B70710F0A61BB70B881F991F5A95A9F74B
:1016700080959095BC01CD01089597FB092E072612
:101680000AD077FD04D0E5DF06D000201AF470956B
:1016900061957F4F0895F6F7909581959F4F089536
:1016A000EE0FFF1F0590F491E02D0994FB01DC0182
:1016B00004C08D910190801921F441505040C8F729
:1016C000881B990B0895FB01DC0102C001900D926B
:1016D00041505040D8F70895F999FECF92BD81BD91
:0C16E000F89A992780B50895F894FFCF80
:0A16EC00000000006B0A1909320922
:00000001FF
